:020000040800F2
:10000000000001207D0D0008A5030008A9030008D9
:10001000AD030008B1030008B503000800000000AC
:10002000000000000000000000000000B90300080C
:10003000BD03000800000000C1030008C50300085C
:10004000C50D0008C50D0008C50D0008C50D000848
:10005000C50D0008C50D0008C50D0008C50D000838
:10006000C50D0008C50D0008C50D0008C50D000828
:10007000C50D0008C50D0008C50D0008C50D000818
:10008000C50D0008C50D0008C50D0008C50D000808
:10009000C50D0008C50D0008C50D0008C50D0008F8
:1000A000C50D0008C50D0008C50D0008C50D0008E8
:1000B000C50D0008C50D0008C50D0008C50D0008D8
:1000C000C50D0008C50D0008C50D0008C50D0008C8
:1000D000C50D0008C50D0008C50D0008C50D0008B8
:1000E000C50D0008C50D0008C50D0008C50D0008A8
:1000F000C50D0008C50D0008C50D0008C50D000898
:10010000C50D0008C50D0008C50D0008C50D000887
:10011000C50D0008C50D0008C50D0008C50D000877
:10012000C50D0008C50D0008C50D0008C50D000867
:1001300000000000000000000000000000000000BF
:1001400000000000000000000000000000000000AF
:10015000000000000000000000000000000000009F
:10016000000000000000000000000000000000008F
:10017000000000000000000000000000000000007F
:10018000000000000000000000000000000000006F
:10019000000000000000000000000000000000005F
:1001A000000000000000000000000000000000004F
:1001B000000000000000000000000000000000003F
:1001C000000000000000000000000000000000002F
:1001D000000000000000000000000000000000001F
:0401E0005FF8E0F1F3
:1001E40010B5054C237833B9044B13B10448AFF36D
:1001F40000800123237010BD38040020000000009B
:10020400A00F0008084B10B51BB108490848AFF30C
:1002140000800848036803B910BD074B002BFBD0CE
:10022400BDE81040184700BF000000003C04002057
:10023400A00F0008380400200000000030B589B089
:1002440000240494059406940794184B9A6942F088
:1002540020029A619A6902F020020192019A9A6935
:1002640042F004029A619A6902F004020292029A2C
:100274009A6942F010029A619B6903F01003039398
:10028400039B0B4D01224FF40061284600F04EFA07
:100294004FF4006304930123059306940223079308
:1002A40004A9284600F04AF909B030BD0010024004
:1002B4000010014072B6FEE700B591B0282200217B
:1002C40006A800F0A7FD002301930293039304936F
:1002D4000593012206924FF4803307930A92022277
:1002E4000D920E934FF4E0130F9306A800F03AFA20
:1002F40008B1FFF7DFFF0F230193022102910023CE
:1003040003934FF480620492059301A800F07CFCEF
:1003140008B1FFF7CFFF11B05DF804FB08B500F09A
:100324007BF8FFF7C9FFFFF789FF0B4C00224FF45E
:100334000061204600F0FAF94FF4FA7000F090F8EA
:1003440001224FF40061204600F0F0F94FF4FA70F6
:1003540000F086F8E9E700BF0010014082B00E4BC0
:100364009A6942F001029A619A6902F001020092CC
:10037400009ADA6942F08052DA61DB6903F0805353
:100384000193019B054A536823F0E06343F0007333
:10039400536002B0704700BF0010024000000140EB
:1003A400FEE700BFFEE700BFFEE700BFFEE700BFB9
:1003B400FEE700BF704700BF704700BF704700BF33
:1003C40008B500F03BF808BD704700BF10B50446FF
:1003D4000E4B18784FF47A73B3FBF0F30C4A1068A1
:1003E400B0FBF3F000F094F858B90F2C0BD80022AE
:1003F40021464FF0FF3000F059F8064B1C600020F6
:1004040010BD012010BD012010BD00BF0800002058
:10041400000000200400002008B5074A136843F0D8
:1004240010031360032000F02FF80020FFF7CEFF25
:10043400FFF794FF002008BD00200240034A136820
:10044400034909780B441360704700BF540400202B
:1004540008000020014B1868704700BF54040020B6
:1004640038B50446FFF7F6FF0546B4F1FF3F02D066
:10047400044B1B781C44FFF7EDFF401B8442FAD861
:1004840038BD00BF08000020074AD36823F4E063A6
:100494001B041B0C000200F4E060184340F0BF6032
:1004A40040F40030D060704700ED00E030B4164BEB
:1004B400DB68C3F30223C3F10704042C28BF04241C
:1004C4001D1D062D01D9DD1E00E00025012303FAC0
:1004D40004F4013C2140A940AB40013B1A400A43CB
:1004E400002808DB1201D2B200F1604000F561403F
:1004F40080F8002305E000F00F001201D2B2034B94
:100504001A5430BC704700BF00ED00E014ED00E069
:100514000138B0F1807F0AD2064B5860F021064AB8
:1005240082F823100020986007221A607047012087
:10053400704700BF10E000E000ED00E0F0B583B0CC
:1005440000263446DEE00122A24013409A4240F0E5
:10055400D8804D68122D2DD00BD8022D27D003D86A
:100564005DB3012D1ED035E0032D30D0112D1BD0ED
:1005740030E0684FBD4220D008D8A7F58017BD42AF
:100584001BD007F58037BD4224D116E0624FBD422F
:1005940013D007F58037BD420FD0A7F58017BD42B1
:1005A40018D10AE0CE6815E0CE68043612E0CE68B1
:1005B40008360FE0CE680C360CE08D684DB1012D85
:1005C40002D10261082605E04261082602E0002605
:1005D40000E00426FF2B01D8864601E000F1040E5A
:1005E400FF2B01D8A20002E0A4F108029200DEF879
:1005F40000700F25954027EA050506FA02F22A4302
:10060400CEF800204A6812F0805F7AD0434A956998
:1006140045F001059561926902F001020192019A87
:10062400A708BD1C3E4A52F825E004F003029200DC
:100634000F2595402EEA050E3A4DA84215D005F532
:100644008065A84213D005F58065A84211D005F550
:100654008065A8420FD005F58065A8420DD005F548
:100664008065A8420BD105250AE0002508E0012594
:1006740006E0022504E0032502E0042500E0062547
:1006840005FA02F24EEA02020237254D45F8272008
:100694004A6812F4803F05D005F580652A681A433C
:1006A4002A6004E0204D2A6822EA03022A604A688C
:1006B40012F4003F04D01C4D6A681A436A6004E0D7
:1006C400194D6A6822EA03026A604A6812F4801FBC
:1006D40004D0154DAA681A43AA6004E0124DAA6812
:1006E40022EA0302AA604A6812F4001F04D00E4DE5
:1006F400EA681343EB6004E00B4DEA6822EA030363
:10070400EB6001340B6833FA04F27FF41CAF03B0DE
:10071400F0BD00BF000021100000311000100240A5
:100724000000014000080140000401400AB10161D9
:10073400704709040161704782B0084B1B68084A7E
:10074400A2FB03235B0A00FB03F0019000BF019BA3
:100754005A1E0192002BF9D102B07047000000200C
:10076400D34D6210002800F0EC8170B582B00446CD
:10077400036813F0010F6BD0A84B5B6803F00C0304
:10078400042B0AD0A54B5B6803F00C03082B0DD196
:10079400A24B5B6813F4803F08D0A04B1B6813F492
:1007A400003F55D06368002B52D1CCE16368B3F5A8
:1007B400803F05D1994A136843F48033136026E0DF
:1007C40063B903F1804303F504331A6822F48032D9
:1007D4001A601A6822F480221A6018E0B3F5A02F78
:1007E4000CD103F18043A3F53C331A6842F4802210
:1007F4001A601A6842F480321A6008E0874B1A685B
:1008040022F480321A601A6822F480221A60636823
:100814007BB1FFF71FFE054605E0FFF71BFE401BFB
:10082400642800F292817D4B1B6813F4003FF4D0DE
:100834000EE0FFF70FFE054605E0FFF70BFE401B39
:10084400642800F28481754B1B6813F4003FF4D1D3
:10085400236813F0020F50D0704B5B6813F00C0F39
:100864000AD06E4B5B6803F00C03082B16D16B4B5C
:100874005B6813F4803F11D1684B1B6813F0020FBF
:1008840003D02369012B40F06481644A136823F088
:10089400F803616943EAC10313602EE02369D3B10D
:1008A40001225F4B1A60FFF7D5FD054605E0FFF70F
:1008B400D1FD401B022800F24E81584B1B6813F0F7
:1008C400020FF4D0554A136823F0F803616943EA30
:1008D400C103136011E00022514B1A60FFF7BAFD07
:1008E400054605E0FFF7B6FD401B022800F23581FE
:1008F4004A4B1B6813F0020FF4D1236813F0080F5E
:1009040029D0A369ABB10122464B1A60FFF7A2FDBF
:10091400054605E0FFF79EFD401B022800F21F81FB
:100924003E4B5B6A13F0020FF4D00120FFF704FF83
:1009340011E000223B4B1A60FFF78CFD054605E0F1
:10094400FFF788FD401B022800F20B81334B5B6AE2
:1009540013F0020FF4D1236813F0040F00F08B801E
:100964002E4BDB6913F0805F0BD12C4BDA6942F01C
:100974008052DA61DB6903F080530193019B012506
:1009840000E00025284B1B6813F4807F13D1264A0E
:10099400136843F480731360FFF75CFD064605E0BB
:1009A400FFF758FD801B642800F2DD801E4B1B6896
:1009B40013F4807FF4D0E368012B05D1174A136A3E
:1009C40043F00103136222E063B903F1804303F5AA
:1009D40004331A6A22F001021A621A6A22F004022B
:1009E4001A6214E0052B09D10C4B1A6A42F0040276
:1009F4001A621A6A42F001021A6208E0074B1A6A84
:100A040022F001021A621A6A22F004021A62E368EE
:100A1400D3B1FFF71FFD064610E000BF00100240EF
:100A2400000042428004424200700040FFF712FD81
:100A3400801B41F28833984200F29780544B1B6A22
:100A440013F0020FF2D010E0FFF704FD064607E0B2
:100A5400FFF700FD801B41F28833984200F2878043
:100A64004B4B1B6A13F0020FF2D125B1484AD369EC
:100A740023F08053D361E369002B7AD0444A52684F
:100A840002F00C02082A4CD0022B37D10022414B31
:100A94001A60FFF7DFFC054604E0FFF7DBFC401BB0
:100AA400022868D83A4B1B6813F0007FF5D1236AFB
:100AB400B3F5803F06D136494B6823F40032A3686E
:100AC40013434B603248436823F47411236A626A07
:100AD40013430B43436001222E4B1A60FFF7BAFC09
:100AE400044604E0FFF7B6FC001B022845D8284B57
:100AF4001B6813F0007FF5D0002047E00022254B4F
:100B04001A60FFF7A7FC044604E0FFF7A3FC001BF0
:100B1400022834D81E4B1B6813F0007FF5D1002047
:100B240034E0012B2DD01A4B5B6803F48031226A28
:100B3400914228D103F47013626A934225D00120B4
:100B440024E001207047012020E003201EE0032060
:100B54001CE001201AE0032018E0032016E0032023
:100B640014E0032012E0032010E003200EE0032031
:100B74000CE000200AE0032008E0032006E0032044
:100B840004E0012002E0012000E0002002B070BD7A
:100B9400001002406000424230B486B0164D02ACF0
:100BA40028686968AA68EB680FC42B8AADF804301A
:100BB400124B5B6803F00C02082A19D1C3F3834279
:100BC40006A90A4412F8100C13F4803F0CD00B4B06
:100BD4005B68C3F340430B4413F8142C084B03FB2A
:100BE40000F0B0FBF2F004E0064B03FB00F000E081
:100BF400034806B030BC7047B80F0008001002402C
:100C040000127A0000093D00002800F09D8070B5B4
:100C14000446544B1B6803F007038B420BD2514A22
:100C2400136823F007030B431360136803F00703EF
:100C3400994240F08B80236813F0020F17D013F011
:100C4400040F04D0484A536843F4E06353602368B4
:100C540013F0080F04D0444A536843F460535360BC
:100C64004148436823F0F002A368134343600D46F0
:100C7400236813F0010F2ED06268012A05D13A4B84
:100C84001B6813F4003F0DD162E0022A05D1364BF4
:100C94001B6813F0007F05D15CE0334B1B6813F035
:100CA400020F59D030494B6823F0030313434B60C0
:100CB400FFF7D0FB064606E0FFF7CCFB801B41F2B2
:100CC400883398424AD8284B5B6803F00C03626867
:100CD400B3EB820FF0D1234B1B6803F007039D4253
:100CE4000AD2204A136823F007032B4313601368C6
:100CF40003F007039D4233D1236813F0040F06D099
:100D040019494B6823F4E062E36813434B6023689A
:100D140013F0080F07D0144A536823F46053216971
:100D240043EAC1035360FFF737FF0F4B5B68C3F31C
:100D340003130E4AD35CD8400D4B18600D4B186852
:100D4400FFF744FB002070BD01207047012070BDF7
:100D5400012070BD012070BD012070BD032070BD55
:100D6400012070BD0020024000100240CC0F00089A
:100D74000000002004000020002103E00B4B5B581E
:100D8400435004310A480B4B42189A42F6D30A4A9C
:100D940002E0002342F8043B084B9A42F9D3FFF7E0
:100DA40013FB00F00FF8FFF7B9FA7047EC0F0008D7
:100DB40000000020380400203804002058040020DB
:100DC400FEE7000070B50F4E0F4D761BB61018BF2E
:100DD400002405D0013455F8043B9847A642F9D1C4
:100DE4000A4E0B4D00F0DAF8761BB61018BF00243B
:100DF40006D0013455F8043B9847A642F9D170BD9A
:100E040070BD00BFE00F0008E00F0008E80F000805
:100E1400E00F000870B4840746D0541E002A41D065
:100E2400CDB2034602E0621EE4B3144603F8015B4C
:100E34009A07F8D1032C2ED9CDB245EA05250F2CFB
:100E440045EA054519D9264603F11002103E0F2E36
:100E540042F8105C42F80C5C42F8085C42F8045C0E
:100E640002F11002F2D8A4F1100222F00F0204F0F1
:100E74000F041032032C13440DD91E462246043AA3
:100E8400032A46F8045BFAD8221F22F00302043234
:100E9400134404F003042CB1C9B21C4403F8011B2D
:100EA400A342FBD170BC704714460346C2E700BF9F
:100EB400024B13B1024800F005B87047000000006F
:100EC400D50E0008002301461A46184600F014B84F
:100ED40038B5074D074C2C1BA41005D0013C55F820
:100EE400043D9847002CF9D1BDE8384000F05CB8C7
:100EF400EC0F0008E80F00082DE9F047254C0646E2
:100F040025688846D5F8484192469946C4B3606836
:100F14001F2817DC411C76B104EB8003C3F888A0BA
:100F2400D4F88851012282401543022EC4F8885116
:100F3400C3F808911ED0831C6160002044F823800C
:100F4400BDE8F087144B03B34FF4C870AFF30080CF
:100F54000446D0B1D5F84831002784E888003846E3
:100F6400C5F848410121C4F88871C4F88C71002E79
:100F7400E1D0D1E7D4F88C311A43C4F88C21DAE7F4
:100F840005F5A674C5F84841C1E74FF0FF30BDE848
:100F9400F08700BFDC0F000800000000F8B500BFB8
:100FA400F8BC08BC9E467047F8B500BFF8BC08BC46
:040FB4009E4670479E
:100FB80002030405060708090A0B0C0D0E0F101092
:100FC800010200000000000000000000010203040C
:080FD8000607080910000020C3
:080FE000B50E0008090200082B
:040FE800E501000817
:100FEC000024F400100000000100000000000000CC
:100FFC0000000000FC02002064030020CC03002051
:10100C0000000000000000000000000000000000D4
:10101C0000000000000000000000000000000000C4
:10102C0000000000000000000000000000000000B4
:10103C0000000000000000000000000000000000A4
:10104C000000000000000000000000000000000094
:10105C000000000000000000000000000000000084
:10106C000000000000000000000000000000000074
:10107C000000000000000000000000000000000064
:10108C000000000000000000000000000000000054
:10109C000000000000000000010000000000000043
:1010AC000E33CDAB34126DE6ECDE05000B00000008
:1010BC000000000000000000000000000000000024
:1010CC000000000000000000000000000000000014
:1010DC000000000000000000000000000000000004
:1010EC0000000000000000000000000000000000F4
:0400000508000D7D65
:00000001FF
